:020000006C2C66
:10000800FF00030E83018316E1000A08E0008A015D
:1000180070088312A3007108A2007208A1000B1DCA
:1000280028288B1E2828C30A4C304302031C262884
:1000380083164F1C23288312C40183164F10831282
:10004800C3018B1281010B118B1C2F280B1E2F282B
:100058000130C4008B100B1C53288B1D5328061E1F
:1000680038280230C4005228861E3D280330C400B8
:100078005228061F47280430C4008316D00A0319E3
:10008800D10A5B24522883120313861F4E28053099
:10009800C4005228861D52280830C4000B10831251
:1000A80003132308F0002208F1002108F200831648
:0E00B80060088A00610E8300FF0E7F0E0900B3
:0600C6000000000008002C
:1000CC000F3083120313FC004730FD00FD0B6C282E
:0A00DC00FC0B6C2800000000080077
:0E00E600213083120313FD00FD0B7728080064
:0E00F400F201F101F001F801F3010030080003
:1001020083160313E71B8828831288118A28831217
:1001120088158316671B9028831208119228831270
:1001220008158316E71A9828831288109A288312D2
:1001320088148316671AA02883120810A228831233
:1001420008148316CF18A82883120816AA28831227
:1001520008128816632088128316E719B3288312BF
:100162008811B5288312881583166719BB28831254
:100172000811BD28831208158316E718C3288312B5
:100182008810C5288312881483166718CB28831217
:100192000810CD28831208148316CF18D32883128F
:1001A2000816D5288312081288166320881283162F
:0C01B200CF1CDD286620DE28732008002A
:1001BE007B15FB1FE9280130F300F201F101F0017C
:0801CE00FA0DF20CFF300800ED
:0801D600FA1FF21300300800CB
:1001DE00831603136608831203178D0083168C1380
:0A01EE000C1483120C08F000080046
:1001F800831603178C1C02290000FC2803136808C7
:10020800831203178D0083160313690883120317DB
:100218008C0083168C130C150B08F0008B135530CB
:100228008D00AA308D008C14F01B1C298B131D29FE
:060238008B170C110800F9
:0E023E008316031353088A005208820008003A
:10024C00FB14FB1F3029FF30F300F200F100F0002B
:08025C00FA0DF20CFF3008005E
:100264000E3083120313FD00FD0B36290000080035
:1002740083160313CF106608E70081208316CF147A
:02028400080070
:06028600FB15FF3008002B
:10028C00A0017208031D5B297108F2007008F100CF
:10029C00F001A0157208031D5B297108F200F10131
:1002AC00A01120167208031969292008F302031DF6
:1002BC00031C6D290310F21B7129F00DF10DF20DC9
:1002CC00F30B61296D290130FC007A20742902306E
:0E02DC00FC00DF2074290430FC00EB20080039
:1002EA00831203137008F8007108F000F101F2019B
:1002FA00F301FB01FC019630F300FA017008F100EA
:0C030A007808F000F801F201462108001C
:1003160083120313F801F9011030FC00710DF80D7A
:10032600F90D7408F8027508031C750FF902031815
:10033600A3297408F80775080318750FF907031041
:0A034600F00DF10DFC0B91290800E9
:10035000BA29803083160313E200CD29C030E200B1
:10036000CD299430E200CD29D430E200CD2980306F
:10037000E200CD29831603136208013A0319A92963
:100380006208023A0319AE296208033A0319B12937
:100390006208043A0319B429B7296303F00062081C
:1003A000F0077008E200CF147008E7008120831680
:0E03B000CF106408E70081208316CF140800E8
:1003BE0083120313FB017308031D77080319362AF2
:1003CE0072087606FA007708F3077E30031CF329CD
:1003DE00F3020318392AF629F302031C3C2A720889
:1003EE00F8007108FC007008FD00F817F6170310EE
:1003FE00F201F101F0011830A0007D1C102A7408E2
:10040E00F00775080318750FF10776080318760FB5
:10041E00F207F20CF10CF00CF80CFC0CFD0C0310B6
:10042E00A00B042AF21B202AF80DF00DF10DF20D8F
:10043E00F3037B1B701C322AF81F322AF00A0319B1
:10044E00F10A0319F20A031D322AF20CF10CF00C18
:10045E00F30A0319392AFA1FF21300303E2A01302B
:10046E007A203E2A023026213E2A0430DF20000068
:02047E00080074
:10048000831203137408003A031D5B2A7508003AAF
:10049000031D5B2A7608003A031D5B2A7708003AA1
:1004A000031D5B2AFF30F000FF30F1007F30F200C7
:1004B000FF30F300F62A8312031377080319EA2AA0
:1004C00073080319ED2A720876068039FA00F217CC
:1004D000F617A0017208F8007108FC007008FD0012
:1004E0007408FD027508031C750FFC027608031CD6
:1004F000760FF802F801FC01FD01031C862A0310A7
:10050000F20CF10CF00CF80C0130A0007708F302AB
:10051000031C902A7E302007F3070318F02A952A3F
:100520007E302007F307031CF32A1830FA07FD0D6D
:10053000FC0DF80DF00DF10DF20DA00D7408F00298
:100540007508031C750FF1027608031C760FF20282
:10055000760DA004201CAE2A7D14B92A7408F00779
:1005600075080318750FF10776080318760AF20765
:100570007D10FA031F307A05031D972A7B1B7D1C13
:10058000E02A0310F00DF10DF20DA00D7408F00239
:100590007508031C750FF1027608031C760FF20232
:1005A000760D20040139FD070318FC0A0319F80A27
:1005B000031DE02AF80CFC0CFD0CF30A0319F02AC9
:1005C000FA1FF8137808F2007C08F1007D08F000AB
:1005D0000030F52A01304321F52A02307A20F52A2D
:0E05E00004302621F52A0830DF200000080034
:1005EE00C730831203139F052408F000F00D70101E
:1005FE00F00D7010F00D701070089F0432211F1551
:10060E001F1D0B2B0000072B1E08F100F001831697
:0A061E001E08F0040030F10408008B
:1006280083120313FA017308031D7A147708031D54
:10063800FA147A080319602B033A03192B2B7A183A
:10064800282BF61F5E2B5C2BF21F5C2B5E2B72088F
:100658008039FA00F21376088039F6137A060319FE
:10066800392B7A0803195C2B5E2B77087302031960
:10067800402B031C542B582B760872020319472B66
:10068800031C542B582B7508710203194E2B031C9D
:10069800542B582B740870020319602B0318582B1D
:1006A800FA0803195E2B5C2BFA0803195C2B5E2BE6
:1006B80003140800031008000314031508000800B9
:1006C800762B803083160313E200892BC030E200BA
:1006D800892B9430E200892BD430E200892B8030BA
:1006E800E200892B831603136208013A0319652B6C
:1006F8006208023A03196A2B6208033A03196D2B40
:100708006208043A0319702B732B6303F000620824
:10071800F0077008E2007008E70081208316CF1008
:10072800E50165086407840000080319A32B650820
:10073800640784000008E6003A21E50A952BCF14E7
:020748000800A7
:10074A001F218A110A128000840AD20A0319D30AC5
:08075A00F003031DA52B0800AC
:1007620083160313881208120810881008118811C2
:100772008312881208128811081188100810662046
:100782006620662088140814881663208812662062
:1007920088166320881266208816632088126620D5
:1007A2000810881663208812662088166320881233
:1007B200881088158816632088126620881108140C
:1007C2008816632088120810881663208812662013
:1007D20088166320881208148816632088126620FF
:1007E20008108816632088128815081588140814C2
:0E07F20088166320881266208316CF14080034
:100800000F2C1F3083120313F3001E2C5E30F300F5
:100810001E2C9C30F3001E2C5E30F3001E2C831621
:1008200003136208003A0319012C62085A3A0319AB
:10083000062C6208B43A0319092C0C2C0313730814
:10084000F000F00CF013F00CF01370088312950018
:1008500003307305F2007208F000F00D7010F00D17
:100860007010F00D7010F00D70100C3070049700C7
:0208700008007E
:10087200831603130711F93092000C30831297008C
:0A08820095010630920012150800DF
:10088C0083160313E601EF20700883160313E200AE
:10089C000130E600EF20831603136208D100D0016B
:0A08AC007008D0040030D1040800E9
:1008B60083160313E8015108F000F1017008E900FE
:1008C600FC2001300313E800FF305005E900FC204E
:0208D600080018
:1008D8005E27FF30831603138500FF3086008701EB
:1008E8008801081288120810881008118811071149
:1008F8008712071387130614051606168616061799
:1009080086178615831287120713871383164F10CD
:10091800073081000B178B170B168B158B120B11D9
:1009280080309F00093083129F00B12339240130A1
:100938008316E70081200C308316E70081204624C7
:100948000130E2000130E300831225088316E40039
:1009580064230330FB000830FC007730FD00FD0BFA
:10096800B32CFC0BB32CFB0BB32C02308312A4006A
:10097800F7227008D4007108D50075210030F40002
:100988000030F5002030F6008130F700DF2100301C
:10099800F400C030F5007F30F6008830F7004022C0
:1009A80070088316D6007108D7007208D80073083B
:1009B800D90003308312A400F7227008DA00710806
:1009C800DB0075210030F4000030F5002030F6001F
:1009D8008130F700DF210030F400C030F5007F30AF
:1009E800F6008830F700402270088316DC00710892
:1009F800DD007208DE007308DF008312051E1C2D5F
:100A080083164F18112D06308312C40083164F1415
:100A18008312C30181018B16192D83120730C4007C
:100A280083164F108B128312C301051E1C2D192D1E
:100A3800861D202D0830C4004408073A031D712D77
:100A48000030F4000030F5006030F6008030F70028
:100A580083165C08F0005D08F1005E08F2005F088C
:100A6800F30014230130031C0030F0007008031950
:100A7800702D83165608F4005708F5005808F6003C
:100A88005908F7000030F0000030F1000030F200A3
:100A98008030F3001423013003180030F000700890
:100AA8000319702D0030F4000030F5006030F600B6
:100AB8008030F70083165608F0005708F1005808F0
:100AC800F2005908F3001423013003180030F00035
:100AD80070080319702D712D752D01308316E700EC
:100AE8008120AB2E01308316E2000130E30083122F
:100AF80025088316E400642383128713CF2E013060
:100B08008316E2000130E300831226088316E4000E
:100B180064238312871387160713CF2E0130831699
:100B2800E2000130E300831227088316E4006423FF
:100B38008312871207138713CF2E01308316E20022
:100B48000130E300831228088316E400642383122B
:100B5800871387120713CF2E01308316E200013066
:100B6800E3003C30E40064238312871607178717D5
:100B78008230FC00DD30FD00FD0BC02DFC0BC02DCC
:100B88000000000087120713CF2E01308316E20001
:100B98000130E30083122A088316E40064238312D9
:100BA800871387120713CF2E01308316E200013016
:100BB800E30083122B088316E4006423831287134F
:100BC800CF2E01308316E2000130E30083122C0897
:100BD8008316E4006423831287130030F400003086
:100BE800F5006030F6008030F70083165C08F000EE
:100BF8005D08F1005E08F2005F08F300142301307D
:100C0800031C0030F00070080319192EB430831645
:100C1800E200002402308316E2000130E300831270
:100C28002D088316E40064235D2E83165608F4000D
:100C38005708F5005808F6005908F7000030F0008A
:100C48000030F1000030F2008030F300142301304E
:100C580003180030F00070080319592E0030F40012
:100C68000030F5006030F6008030F7008316560833
:100C7800F0005708F1005808F2005908F30014234F
:100C8800013003180030F00070080319592E83163C
:100C9800E201002402308316E2000130E3008312EF
:100CA8002E088316E40064235D2E83165A30E20072
:100CB80000241530FB004B30FC00BE30FD008312D1
:100CC800FD0B632EFC0B632EFB0B632E0000C4018F
:100CD800CF2E01308316E2000130E3002F30E4000C
:100CE80064230230E2000130E3000A30F4000030EF
:100CF800F5005008F0005108F1008B2130307007E2
:100D08008316E400A8210A30F4000030F5005008EA
:100D1800F0005108F1008B217808F0007908F10003
:100D2800303070078316E6003A21831287120713C2
:100D38001530FB004B30FC00BE30FD00FD0BA22E31
:100D4800FC0BA22EFB0BA22E0000C401CF2E4408E0
:100D5800003A0319762D4408013A0319832D4408F3
:100D6800023A0319922D4408033A0319A12D4408A5
:100D7800043A0319B02D4408053A0319C92D44084B
:100D8800063A0319D82D4408073A0319E52D4408F3
:100D9800083A03196D2E0230FB000430FC00BA300B
:100DA800FD00FD0BD52EFC0BD52EFB0BD52E000020
:040DB800B92CDD2E47
:100EBC00253084004B3083120313F000E33083168B
:100ECC00D2000630D300A523A03084002F3083122B
:100EDC00F0002E308316D2000730D300A523080073
:100DC600C634BC34B1345C345234A0346634453451
:040DD6004C34AB34BA
:100DDA0041344C34453452345434203443344F343F
:0A0DEA0055344E3454343A340034CA
:0E0DF40041344C3445345234543445340034C8
:020E02000034BA
:020E04000034B8
:0E0E060054345234493420344F344B340034C9
:0C0E14004D344534543441344C34003427
:100E20004534523452343A345634453452344934C9
:040E30004634003410
:100E340053345934533420345034413455345334B6
:040E440045340034FD
:100E480043344F344E344634493452344D344534A7
:040E580052340034DC
:100E5C0053345934533420345634453449344C3497
:060E6C004C344534003453
:0C0E720050344C344134533454340034B8
:100E7E00543452344934203441344E344E34553483
:060E8E004C344534003431
:100E9400543452344934203443344F345534523466
:040EA400533400348F
:100EA8005334593453342034503452344534543440
:020EB800003404
:02400E007A3BFB
:00000001FF
